S01000004C454446696768742E737265634D
S113000016C030C02FC0C1C02DC02CC06CCAC9C915
S113001029C029C027C026C025C024C006C722C0C5
S113002021C020C01FC0B611FA3A8A3889001124B1
S11300301FBECFE5D4E0DEBFCDBF11E0A0E6B0E047
S1130040EAEEF8E102C005900D92AA3FB107D9F794
S113005022E0AAEFB1E001C01D92A131B207E1F79D
S1130060C3DA41CCCDCF1F920F920FB60F92112459
S11300702F933F934F935F938F939F9380910302AA
S113008082FD0FC0859B0DC08091030280FF09C0D3
S11300908091030280959091030280FB90F99093E4
S11300A003028091030282FF18C0859916C08091D3
S11300B0030280FD12C08091030284FD05C080917B
S11300C001028F5F809301028091030280959091D9
S11300D0030280FB90F9909303028091030284FF52
S11300E047C03091FF013F5F3093FF018091FD01D4
S11300F09091FE0101969093FE018093FD01409141
S11301000702429546954695437020910802220FB6
S1130110220F242B321307C0209101022F5F20935A
S113012001021092FF0140910802429546954695BE
S1130130437050910902550F550F252F242B5091D0
S11301400902529556955695537040910A0247708C
S1130150440F440F342F352B8217930749F48091B1
S113016003028F7E809303021092FE011092FD0120
S113017084E882BF9F918F915F914F913F912F911E
S11301800F900FBE0F901F9018951F920F920FB6ED
S11301900F9211242F933F934F935F938F939F93C9
S11301A08091030283FD12C0879B10C080910302DB
S11301B081FF0CC0809103028695817091E08927AC
S11301C09091030280FB91F99093030280910302C2
S11301D083FF1BC0879919C08091030281FD15C05C
S11301E08091030285FD05C0809102028F5F809398
S11301F00202809103028695817091E08927909193
S1130200030280FB91F9909303028091030285FF1E
S113021047C03091FC013F5F3093FC018091FA01AB
S11302209091FB0101969093FB018093FA01409118
S11302300702429546954695437020910802220F85
S1130240220F242B321307C0209102022F5F209328
S113025002021092FC01409108024295469546958F
S1130260437050910902550F550F252F242B50919F
S11302700902529556955695537040910A0247705B
S1130280440F440F342F352B8217930749F4809180
S113029003028F7D809303021092FB011092FA01F6
S11302A09F918F915F914F913F912F910F900FBE2E
S11302B00F901F90189547E050E060E070E084E0F4
S11302C092E0B3CA47E050E060E070E084E092E07E
S11302D094CA47E050E066E270E084E092E061CACC
S11302E0F1DFE4E0F2E08191811105C082E0EB30BE
S11302F0F807C9F7EECF0895CF92DF92EF92FF92FD
S11303000F931F93CF93DF93F89451D700E011E03C
S1130310C4E6D0E050E4C52E5FE1D52EE12CF12CEB
S11303202FEF80E792E0215080409040E1F700C039
S11303300000879908C0011106C0143010F41F5F33
S113034001C011E034D7B09908C0011106C01130C2
S113035011F0115001C014E02AD7869905C001118B
S1130360AADF25D700E002C0113079F460E080E014
S113037018D78CE690E0C9D660E081E012D78DE70B
S113038090E0C3D68599CEC4CFC4123009F082C49C
S1130390011119C060E080E004D78EE890E0B5D682
S11303A060E081E0FED68DE790E0AFD68599B8CFC6
S11303B02FEF81EE94E0215080409040E1F700C09F
S11303C00000F5D603C0013009F047C060E080E0CA
S11303D0E8D68FE990E099D660E081E0E2D68AEA37
S11303E090E093D6809104028F7190E09695879562
S11303F09CD684EB91E089D6879910C08091040241
S11304008F7190E0469754F4909104029C5F9F7121
S113041080910402807E892B80930402B09910C0DD
S1130420809104028F7190E0079754F09091040238
S1130430945E9F7180910402807E892B80930402D4
S1130440859926C42FEF81EE94E02150804090409E
S1130450E1F700C00000ABD603C0023009F052C07F
S113046060E080E09ED68FEA90E04FD660E081E0C5
S113047098D68AEA90E049D68091040282958695BE
S1130480837090E0019651D6879917C08091040239
S1130490829586958370833081F0809104028295E1
S11304A0869587708F5F83708295880F807E909188
S11304B004029F79982B90930402B09916C08091FE
S11304C0040282958695837081F08091040282955E
S11304D0869587708D5F83708295880F807E90915A
S11304E004029F79982B909304028599CEC12FEF33
S11304F081EE94E0215080409040E1F700C000007C
S113050056D603C0033009F0D6C060E080E049D677
S11305108DEB90E0FAD560E081E043D68AEA90E082
S1130520F4D58EEC90E0F1D580910402881F8827E1
S1130530881F90910502990F492F482B809105023D
S1130540881F8827881F90910602990F592F582BCE
S113055060E070E04F5F5F4F6F4F7F4F962F852FA6
S1130560742F6627A70196018DD8C901DED582EDC7
S113057090E0CBD5879948C020910402221F2227FE
S1130580221F30910502330F832F822B2091050205
S1130590221F2227221F30910602330F932F922B02
S11305A08332944F88F520910402221F2227221FB0
S11305B030910502330F832F822B20910502221FD5
S11305C02227221F30910602330F932F922B8B5C2C
S11305D0934F2091040280FB27F920930402282FD3
S11305E02695809105028078822B80930502809164
S11305F0050290FB87F98093050296958091060287
S11306008078892B80930602B09948C02091040217
S1130610221F2227221F30910502330F832F822BA2
S113062020910502221F2227221F30910602330F38
S1130630932F922B85339C4088F120910402221F32
S11306402227221F30910502330F832F822B209102
S11306500502221F2227221F30910602330F932FF7
S1130660922B85539C402091040280FB27F9209310
S11306700402282F2695809105028078822B80938E
S113068005028091050290FB87F9809305029695F7
S1130690809106028078892B8093060285992DC16A
S11306A08FEF91EE24E0815090402040E1F700C0AC
S11306B000007DD503C0043009F07BC060E080E019
S11306C070D587ED90E021D560E081E06AD58AEAB3
S11306D090E01BD580910602881F8827881F6091AF
S11306E007026770660F682B70E0CE01B8D7CB01A4
S11306F01CD587EE90E009D5879926C09091060213
S1130700991F9927991F809107028770880F892B59
S113071090E00497CCF090910602991F9927991FB5
S1130720809107028770880F892B815F8F70909169
S1130730060280FB97F99093060286959091070232
S1130740987F982B90930702B09926C09091060247
S1130750991F9927991F809107028770880F892B09
S113076090E00A97CCF490910602991F9927991F5B
S1130770809107028770880F892B8F5F8F7090910B
S1130780060280FB97F990930602869590910702E2
S1130790987F982B9093070285993FC18FEF91EE34
S11307A024E0815090402040E1F700C00000FFD4D5
S11307B002C00530A1F560E080E0F3D48AEE90E059
S11307C0A4D460E081E0EDD48AEA90E09ED48BEF7B
S11307D090E09BD48091070283FF03C084E690E0FD
S11307E002C088E690E091D4879905C08091070201
S11307F0886080930702B09905C080910702877FC3
S11308008093070285990CC28FEF91EE24E081500A
S113081090402040E1F700C00000C9D402C0063077
S1130820B1F560E080E0BDD485E091E06ED460E095
S113083081E0B7D48AEA90E068D48BEF90E065D485
S11308408091070284FF03C084E690E002C088E63A
S113085090E05BD4879905C0809107028061809302
S11308600702B09905C0809107028F7E809307022A
S1130870859990C28FEF91EE24E081509040204002
S1130880E1F700C0000093D404C002E049CD073072
S1130890B1F560E080E085D484E191E036D460E095
S11308A081E07FD48AEA90E030D48BEF90E02DD4BD
S11308B08091070285FF03C084E690E002C088E6C9
S11308C090E023D4879905C08091070280628093C9
S11308D00702B09905C0809107028F7D80930702BB
S11308E085995AC28FEF91EE24E0815090402040C8
S11308F0E1F700C000005BD405C003E011CD08306F
S113090009F08DC060E080E04CD482E291E0FDD338
S113091060E081E046D48AEA90E0F7D38EEC90E080
S1130920F4D3909107029295969596959370809141
S11309300802880F880F892B24E0829FC0011124AC
S1130940F4D382ED90E0E1D387992CC09091070213
S1130950929596959695937080910802880F880FCA
S1130960892B8A3FF8F49091070292959695969573
S1130970937080910802880F880F892B8B5F282F32
S11309802295220F220F207C909107029F73922BB5
S1130990909307028695869590910802907C982BF7
S11309A090930802B0992CC0909107029295969565
S11309B09695937080910802880F880F892B8A314D
S11309C0F8F0909107029295969596959370809180
S11309D00802880F880F892B8550282F2295220F13
S11309E0220F207C909107029F73922B9093070211
S11309F08695869590910802907C982B9093080296
S1130A008599CCC18FEF91EE24E081509040204035
S1130A10E1F700C00000CBD305C004E081CC09306D
S1130A2009F000C160E080E0BCD383E391E06DD3C2
S1130A3060E081E0B6D38AEA90E067D320910802AF
S1130A40229526952695237030910902330F330F92
S1130A50832F822B30910902329536953695337067
S1130A6020910A022770220F220F922F932B880FB6
S1130A70991F880F991F59D382ED90E046D3879927
S1130A8060C0209108022295269526952370309106
S1130A900902330F330F832F822B309109023295D1
S1130AA036953695337020910A022770220F220F53
S1130AB0922F932B883893410CF043C02091080265
S1130AC0229526952695237030910902330F330F12
S1130AD0832F822B309109023295369536953370E7
S1130AE020910A022770220F220F922F932B4996EE
S1130AF09F71382F3295330F330F307C20910802C9
S1130B002F73232B20930802282F26952695809156
S1130B100902807C822B80930902292F2295220FBF
S1130B20220F207C809109028F73822B809309020B
S1130B3096959695977080910A02887F892B809369
S1130B400A02B09960C02091080222952695269544
S1130B50237030910902330F330F832F822B30918E
S1130B600902329536953695337020910A02277022
S1130B70220F220F922F932B8B3F91050CF443C02D
S1130B80209108022295269526952370309109021A
S1130B90330F330F832F822B309109023295369510
S1130BA03695337020910A022770220F220F922F5C
S1130BB0932B49979F71382F3295330F330F307C25
S1130BC0209108022F73232B20930802282F2695A7
S1130BD0269580910902807C822B80930902292F1B
S1130BE02295220F220F207C809109028F73822B81
S1130BF08093090296959695977080910A02887F52
S1130C00892B80930A028599CBC08FEF91EE24E063
S1130C10815090402040E1F700C00000C8D205C0D8
S1130C2005E07ECB0A3009F07BCB60E080E0B9D2EE
S1130C3080E491E06AD260E081E0B3D28AEA90E095
S1130C4064D28BEF90E061D280910A0283FF03C0EB
S1130C5084E690E002C088E690E057D2879905C008
S1130C6080910A02886080930A02B09905C080913D
S1130C700A02877F80930A02859994C08FEF91EED0
S1130C8024E0815090402040E1F700C000008FD262
S1130C9001E046CB133049F560E080E001110DC05E
S1130CA080D280E591E031D260E081E07AD28DE7B4
S1130CB090E02BD2859934CBE1CF73D281E691E0D9
S1130CC024D260E081E06DD282E791E01ED2859962
S1130CD027CB8FEF91EE24E0815090402040E1F744
S1130CE000C0000064D200E01BCB143009F018CB24
S1130CF060E080E056D283E891E007D260E081E0D2
S1130D0050D28EE890E001D285990ACBE2DAD3DAA8
S1130D108FEF91EE24E0815090402040E1F700C035
S1130D20000045D211E0FCCA42D260E080E039D232
S1130D3084E991E0EAD15AD11ED124D144D1AD98AD
S1130D40AC98AB988FEF99E628E181509040204011
S1130D50E1F700C00000AD9A8FEF99E628E18150D9
S1130D6090402040E1F700C00000AB9A8FEF99E675
S1130D7028E1815090402040E1F700C00000AC9A87
S1130D807894DF91CF911F910F91FF90EF90DF90B6
S1130D90CF90089506E0C4CA07E0C2CA08E0C0CAFA
S1130DA009E0BECA0AE0BCCA80910A0284FD04C0FC
S1130DB080910A0285FF38C0F894809103028F7EE7
S1130DC080930302809103028F7D80930302EFD10D
S1130DD060E080E0E6D187EC91E097D160E081E0CB
S1130DE0E0D180910A0284FF03C085EA91E002C049
S1130DF086EB91E08AD180910A028F7E80930A0269
S1130E0080910A028F7D80930A02AD9AAC9AAB9AC4
S1130E102FEF83ED90E3215080409040E1F700C034
S1130E20000083E007D268CA08951F920F920FB69C
S1130E300F9211242F938F939F9380910F02880F09
S1130E4080930F0220910F0284B195B18170822B9F
S1130E5080930F029F918F912F910F900FBE0F904F
S1130E601F9018958091030280FF0DC0859B0BC0D5
S1130E708091030282FF07C084E882BF809103024D
S1130E808B7F809303028091030280FD0DC08599BE
S1130E900BC08091030282FD07C084E882BF809169
S1130EA0030284608093030208959D9905C0869986
S1130EB003C0AD9A81E0BED19C9909C0869907C050
S1130EC0AC9A8091030284FD02C080E0B3D19B9967
S1130ED008C0869906C0AB9A809103028061809312
S1130EE0030208958091030281FF0CC0879B0AC00E
S1130EF08091030283FF06C014BC80910302877FA4
S1130F00809303028091030281FD0CC087990AC07B
S1130F108091030283FD06C014BC809103028860A3
S1130F208093030208959D9905C0B09903C0AD9ABA
S1130F3080E080D19C9909C0B09907C0AC9A809197
S1130F40030284FD02C081E075D19B9908C0B09969
S1130F5006C0AB9A809103028062809303020895D5
S1130F60959A979A969AC09AB99AA29AA19A84B392
S1130F70886384BB089583B7846083BF84E882BF99
S1130F8082BF08958EB588608EBD8EB584608EBD97
S1130F908EE190E099BD88BD20910402221F222792
S1130FA0221FE5E0F2E03081330F832F822B208172
S1130FB0221F2227221F30910602330F932F922BD8
S1130FC09BBD8ABD089585B5886085BD85B586605D
S1130FD085BD8CE783BD089580E487B986B18760B9
S1130FE086B9379A359A339A369A089585E59DEAF3
S1130FF0AAEABAEA80930B0290930C02A0930D0222
S1131000B0930E0282E016D1AD9AAC9AAB9A80915D
S113101003028E7F80930302809103028B7F80936F
S11310200302809103028D7F809303028091030267
S1131030877F8093030210920102109202020895A6
S11310401F93CF93DF93C7E0D0E080E811E0180F3F
S1131050BE0184D02896183811F0812FF7CF60E0B4
S113106080E0DF91CF911F919CC0889A899A8A9AD7
S11310708B9A089580B383FB882780F982998260D4
S11310808199846080998860089580FF02C0939A52
S113109001C0939881FF02C0929A01C0929882FF86
S11310A002C0919A01C0919883FF02C0909A08955A
S11310B090980895CF93889889988A988B98C69A1F
S11310C0949AD8DFC82FC295C07F9498949AD2DF9F
S11310D094988C2BCF910895C798ECCFCF93C82FB9
S11310E0C4DFC698949A8C2F82958F70CEDF949823
S11310F0949A8C2FCADF9498EFDF87FDFDCFCF91B0
S11311000895C798EBCFC79AE9CFCF93DF93EC014B
S11311108991882339F090E8980F983008F4877003
S1131120F2DFF6CFDF91CF910895CF93DF93CDB760
S1131130DEB761970FB6F894DEBF0FBECDBF4AE0AD
S1131140BE016F5F7F4F36D3E0DF61960FB6F89430
S1131150DEBF0FBECDBFDF91CF910895EF92FF9216
S11311600F931F93CF93DF93EB018770880F880F42
S1131170880F805CC6DF7E0188E0E80EF11C8E01DA
S11311800F5F1F4FCE0149D3BEDF0E151F0511F0AF
S1131190E801F5CFDF91CF911F910F91FF90EF9070
S11311A00895813009F480E46058860FAACF81E065
S11311B0A8CF5BDFBF9A8C9ABE9AC79A949AC69AB4
S11311C08FE295E70197F1F700C000009498C79863
S11311D0C698949A83E059DF949887E090E2019747
S11311E0F1F700C00000949A83E04FDF949887ECF5
S11311F090E00197F1F700C00000949A83E045DF86
S1131200949887EC90E00197F1F700C00000949A5D
S113121082E03BDF949887EC90E00197F1F700C0FF
S1131220000088E26EDF88E06CDF8CE06ADF86E035
S113123068DFBDCFCF93813089F480910B02909108
S11312400C02A0910D02B0910E0232E0B695A79562
S1131250979587953A95D1F7B06812C0811119C056
S113126080910B0290910C02A0910D02B0910E029C
S113127022E0880F991FAA1FBB1F2A95D1F781600E
S113128080930B0290930C02A0930D02B0930E0274
S113129002C0833021F060E046E150E007C088E1FD
S11312A0C19AAA9AAA988150D9F777C0809104026A
S11312B08F71262F30E0DA01A81BB109CD01959575
S11312C08795281739072CF4C19AAA9AAA986F5FB0
S11312D0EDCF209104022F7186E190E0821B9109E9
S11312E095958795C82F20E030E066E170E0FC2FEB
S11312F0F20F4F2F50E0E0910402EF71909104023D
S11313009F71DB01A91BB109CD01959587958E0FBE
S1131310911D48175907CCF480910B0290910C024F
S1131320A0910D02B0910E0204C0B695A7959795B1
S11313308795FA95D2F780FF02C0C19801C0C19A7F
S1131340AA9AAA982F5F3F4FD2CF60E046E150E0BF
S1131350809104028F71262F30E0FA01E81BF10915
S1131360CF0195958795281739072CF4C19AAA9A25
S1131370AA986F5FEDCF8091030284FF02C0C198E9
S113138001C0C19AAA9AAA988091030285FF02C05B
S1131390C19801C0C19AAA9AAA98A99AA998CF916A
S11313A008951F920F920FB60F9211242F933F931B
S11313B04F935F936F937F938F939F93AF93BF9359
S11313C0EF93FF9320910102409102028091040265
S11313D082958695837030E090E0840F911D82178A
S11313E0930774F510920102109202028091030295
S11313F085FD02C080E01EDF80910B0290910C02FB
S1131400A0910D02B0910E02409104024F715091CF
S113141004025F7126E130E0251B310935952795DB
S1131420240F311D04C0B695A795979587952A95E5
S1131430D2F780FF05C080910A02806180930A027E
S113144020910202409101028091040282958695C6
S1131450837030E090E0840F911D821793076CF540
S113146010920102109202028091030284FD02C0D4
S113147081E0E0DE80910B0290910C02A0910D02BC
S1131480B0910E02409104024F7180959095A09501
S1131490B09526E130E0241B31093595279504C029
S11314A0B695A795979587952A95D2F780FF05C09D
S11314B080910A02806280930A0288B599B54E969B
S11314C099BD88BDFF91EF91BF91AF919F918F918D
S11314D07F916F915F914F913F912F910F900FBE2C
S11314E00F901F9018951F920F920FB60F92112410
S11314F02F933F934F935F936F937F938F939F9318
S1131500AF93BF93EF93FF9380910A0283FF0CC0C4
S113151080910002823019F4AD9A109200028091F9
S113152000028F5F809300022DD18093100280917E
S1131530100290910602991F9927991F6091070242
S11315406770660F692B90E070E089D0892B39F4BD
S11315508091070283FF03C0AC9AAB9AAD98809147
S1131560100290910602991F9927991F6091070212
S11315706770660F692B90E070E071D0019739F4C1
S11315808091070284FF03C0AD9AAB9AAC98809116
S1131590100290910602991F9927991F60910702E2
S11315A06770660F692B90E070E059D0029739F4A8
S11315B08091070285FF03C0AD9AAC9AAB988EE187
S11315C090E099BD88BDFF91EF91BF91AF919F913C
S11315D08F917F916F915F914F913F912F910F90D8
S11315E00FBE0F901F901895789489B7816089BFBA
S11315F089B7806889BF89B7886089BF89B78061E6
S113160089BFAEDCF3DCD5DD6BD61ADDE5DC8FE11A
S11316109EE40197F1F700C00000379880910F0213
S113162090E0B4D0C4DD60E080E0BBDD88ED91E003
S11316306CDD60E081E0B5DD89EE91E066DD9FEF71
S113164023ED80E3915020408040E1F700C000008A
S113165053D6AADB07DC29DC45DC65DCFACF97FB33
S1131660072E16F4009406D077FD08D02DD007FC81
S113167005D03EF4909581959F4F0895709561959E
S11316807F4F0895A1E21A2EAA1BBB1BFD010DC0BA
S1131690AA1FBB1FEE1FFF1FA217B307E407F5071E
S11316A020F0A21BB30BE40BF50B661F771F881FFA
S11316B0991F1A9469F760957095809590959B0190
S11316C0AC01BD01CF010895AA1BBB1B51E107C0AA
S11316D0AA1FBB1FA617B70710F0A61BB70B881FBE
S11316E0991F5A95A9F780959095BC01CD0108954D
S11316F08F929F92AF92BF92CF92DF92EF92FF921E
S1131700CF93DF93EC01688179818A819B81611594
S113171071058105910521F464E279ED8BE597E08B
S11317202DE133EF41E050E0A6D049015A019B017D
S1131730AC01A7EAB1E4BBD06B017C01ACEEB4EF21
S1131740A5019401C0D0C60ED71EE81EF91EF7FEEF
S113175006C081E0C81AD108E10880E8F80AC88206
S1131760D982EA82FB82C6019F77DF91CF91FF90F5
S1131770EF90DF90CF90BF90AF909F908F9008959F
S1131780B7DF089580E690E0B3DF0895A0E0B0E00D
S11317908093600090936100A0936200B093630013
S11317A00895FB01DC0102C005900D9241505040A8
S11317B0D8F70895BB274A3031F4992322F4BDE2C7
S11317C0909581959F4F01C0BB27FB015527AA2700
S11317D0880F991FAA1FA41710F0A41B83955051BA
S11317E0B9F7A05DAA3308F0A95DA193009779F732
S11317F0B111B1931192CB012EC0DC01CB01FC01DC
S1131800E199FECF06C0FFBBEEBBE09A31960DB264
S11318100D9241505040B8F70895E199FECF9FBB17
S11318208EBBE09A99278DB30895DC01CB0102C0E9
S11318302D9105D041505040D8F70895262FE199B5
S1131840FECF9FBB8EBB2DBB0FB6F894E29AE19AF4
S11318500FBE01960895DC01FC01672F7191772377
S1131860E1F7329704C07C916D9370836291AE1757
S1131870BF07C8F30895052E97FB16F400940FD004
S113188057FD05D0FFDE07FC02D046F408C0509592
S11318904095309521953F4F4F4F5F4F0895909558
S11318A08095709561957F4F8F4F9F4F08950FD00E
S11318B0A59F900DB49F900DA49F800D911D1124A0
S11318C00895B7FFF4CFF3DF821B930B0895A29F13
S11318D0B001B39FC001A39F01D0B29F700D811DC1
S10D18E01124911D0895F894FFCF20
S11318EA0100000054414B004E4945003D3D3D2056
S11318FA4E4F574120475241203D3D3D003D3D3D1D
S113190A3D3D3D3D3D3D3D3D3D3D3D3D3D003D3D36
S113191A3D555354415749454E49413D3D3D004C7F
S113192A69637A62612070856C003D3D3D20004305
S113193A7A75836F868120706164857700437A8221
S113194A73746F868120626F6E7573857700636F17
S113195A2000206D732000537A616E7361206E61DA
S113196A20626F6E757300202500426F6E757320B6
S113197A6F64656A6D756A80637900416B747977FF
S113198A6E793A2000426F6E757320646F64616ADF
S113199A80637900426F6E75732072656C616B7334
S11319AA7500537A79626B6F8681206175746F63EF
S11319BA6C6B00437A6173206175746F636C6B009E
S11319CA4175746F4F464620622E6D696E757300B9
S11319DA3D3D3D494E464F524D41434A453D3D3DAD
S11319EA003A3A3A4C45443A3A46494748543A3A0C
S11319FA3A004175746F723A20412E43686F7269D6
S1131A0A616E003D3D3D205245534554554A2020C0
S1131A1A3D3D3D002020506F776F647A656E6961A1
S1131A2A202120200020202020475241435A2031DF
S1131A3A20212020200020202020475241435A20E0
S1131A4A322021202020002020205A7779636982BD
S1131A5A8779833A202020003A3A3A3A3A3A204C93
S1131A6A4544203A3A3A3A3A003A3A3A3A3A204615
S10D1A7A49474854203A3A3A3A002A
S9030000FC
