S01000004C454446696768742E737265634D
S113000012C02CC02BC065C029C028C0F9C026C0AE
S113001025C025C023C022C021C020C01FC01EC0CF
S11300201DC01CC01BC011241FBECFE5D4E0DEBF21
S1130030CDBF10E0A0E6B0E0E6ECF2E002C005902F
S11300400D92A436B107D9F720E0A4E6B0E001C0D0
S11300501D92AA36B207E1F718D133C1D1CF1F924E
S11300600F920FB60F9211248F939F938091680083
S113007081110DC0B09B0BC080916700811107C036
S11300809091670081E0911180E0809367008091F6
S11300906800813091F4B09910C08091670081119B
S11300A00CC0809164008F5F80936400909167001E
S11300B081E0911180E08093670084E882BF89B772
S11300C0816089BF9F918F910F900FBE0F901F90F9
S11300D018951F920F920FB60F9211248F939F932E
S11300E08091650081110DC0B19B0BC080916900A6
S11300F0811107C09091690081E0911180E08093A3
S1130100690080916500813091F4B19910C08091AB
S1130110690081110CC0809166008F5F8093660036
S11301209091690081E0911180E08093690089B722
S1130130806889BF9F918F910F900FBE0F901F9081
S11301401895813089F48091600090916100A091AC
S11301506200B091630032E0B695A79597958795B4
S11301603A95D1F7946012C0811118C08091600053
S113017090916100A0916200B091630022E0880F29
S1130180991FAA1FBB1F2A95D1F781608093600035
S113019090936100A0936200B093630020E030E08C
S11301A0E1E0F0E0409160005091610060916200F4
S11301B070916300CF01022E02C0880F991F0A9428
S11301C0E2F7AA2797FDA095BA2F84239523A623A7
S11301D0B723892B8A2B8B2B11F0959801C0959A04
S11301E0969A96982F5F3F4F2A303105D9F686E0CC
S11301F0959A969A96988150D9F7979A97980895D0
S11302001F920F920FB60F9211242F933F934F9387
S11302105F936F937F938F939F93AF93BF93EF936A
S1130220FF93209164008091660030E090E0039693
S11302308217930734F4109264001092660080E0F1
S113024080DF209166008091640030E090E00396A6
S11302508217930734F4109264001092660081E0D0
S113026070DF89B7806189BFFF91EF91BF91AF9132
S11302709F918F917F916F915F914F913F912F91BA
S11302800F900FBE0F901F901895A49A17BAC09A9A
S1130290C19A8D9A8E9A8F9A1092670081E080930A
S11302A068001092640010926600AC9A2FEF84E309
S11302B09CE0215080409040E1F700C00000AC98E1
S10902C0F4CFF894FFCF17
S10702C6B502000079
S9030000FC
